{
  "contractName": "Nequi",
  "abi": [
    {
      "constant": true,
      "inputs": [
        {
          "name": "",
          "type": "uint256"
        }
      ],
      "name": "users",
      "outputs": [
        {
          "name": "id",
          "type": "uint256"
        },
        {
          "name": "name",
          "type": "string"
        },
        {
          "name": "dinero",
          "type": "uint256"
        }
      ],
      "payable": false,
      "stateMutability": "view",
      "type": "function"
    },
    {
      "constant": true,
      "inputs": [],
      "name": "money",
      "outputs": [
        {
          "name": "",
          "type": "uint256"
        }
      ],
      "payable": false,
      "stateMutability": "view",
      "type": "function"
    },
    {
      "constant": true,
      "inputs": [],
      "name": "user",
      "outputs": [
        {
          "name": "",
          "type": "string"
        }
      ],
      "payable": false,
      "stateMutability": "view",
      "type": "function"
    },
    {
      "constant": true,
      "inputs": [
        {
          "name": "",
          "type": "address"
        }
      ],
      "name": "owner",
      "outputs": [
        {
          "name": "id",
          "type": "uint256"
        },
        {
          "name": "name",
          "type": "string"
        },
        {
          "name": "dinero",
          "type": "uint256"
        }
      ],
      "payable": false,
      "stateMutability": "view",
      "type": "function"
    },
    {
      "constant": true,
      "inputs": [],
      "name": "usersCount",
      "outputs": [
        {
          "name": "",
          "type": "uint256"
        }
      ],
      "payable": false,
      "stateMutability": "view",
      "type": "function"
    },
    {
      "constant": true,
      "inputs": [
        {
          "name": "",
          "type": "uint256"
        }
      ],
      "name": "reciber",
      "outputs": [
        {
          "name": "id",
          "type": "uint256"
        },
        {
          "name": "name",
          "type": "string"
        },
        {
          "name": "dinero",
          "type": "uint256"
        }
      ],
      "payable": false,
      "stateMutability": "view",
      "type": "function"
    },
    {
      "constant": true,
      "inputs": [
        {
          "name": "",
          "type": "uint256"
        }
      ],
      "name": "registered_users",
      "outputs": [
        {
          "name": "",
          "type": "address"
        }
      ],
      "payable": false,
      "stateMutability": "view",
      "type": "function"
    },
    {
      "constant": true,
      "inputs": [
        {
          "name": "",
          "type": "address"
        }
      ],
      "name": "isRegistered",
      "outputs": [
        {
          "name": "",
          "type": "bool"
        }
      ],
      "payable": false,
      "stateMutability": "view",
      "type": "function"
    },
    {
      "constant": false,
      "inputs": [
        {
          "name": "_address",
          "type": "address"
        }
      ],
      "name": "isInNetwork",
      "outputs": [
        {
          "name": "",
          "type": "bool"
        }
      ],
      "payable": false,
      "stateMutability": "nonpayable",
      "type": "function"
    },
    {
      "constant": false,
      "inputs": [
        {
          "name": "_address",
          "type": "address"
        }
      ],
      "name": "addUser",
      "outputs": [],
      "payable": false,
      "stateMutability": "nonpayable",
      "type": "function"
    },
    {
      "constant": false,
      "inputs": [
        {
          "name": "_id",
          "type": "uint256"
        },
        {
          "name": "_money",
          "type": "uint256"
        }
      ],
      "name": "sendMoney",
      "outputs": [],
      "payable": false,
      "stateMutability": "nonpayable",
      "type": "function"
    }
  ],
  "bytecode": "0x60806040526103e860065534801561001657600080fd5b506110ab806100266000396000f3fe608060405234801561001057600080fd5b50600436106100a95760003560e01c8063666e1b3911610071578063666e1b39146102a45780636ba13a821461036f5780639d126ed01461038d578063aab7404914610442578063bd478243146104b0578063c3c5a547146104e8576100a9565b80631d9305ce146100ae578063365b98b21461010a578063421b2d8b146101bf5780634ddd108a146102035780634f8632ba14610221575b600080fd5b6100f0600480360360208110156100c457600080fd5b81019080803573ffffffffffffffffffffffffffffffffffffffff169060200190929190505050610544565b604051808215151515815260200191505060405180910390f35b6101366004803603602081101561012057600080fd5b8101908080359060200190929190505050610756565b6040518084815260200180602001838152602001828103825284818151815260200191508051906020019080838360005b83811015610182578082015181840152602081019050610167565b50505050905090810190601f1680156101af5780820380516001836020036101000a031916815260200191505b5094505050505060405180910390f35b610201600480360360208110156101d557600080fd5b81019080803573ffffffffffffffffffffffffffffffffffffffff169060200190929190505050610825565b005b61020b610a4d565b6040518082815260200191505060405180910390f35b610229610a53565b6040518080602001828103825283818151815260200191508051906020019080838360005b8381101561026957808201518184015260208101905061024e565b50505050905090810190601f1680156102965780820380516001836020036101000a031916815260200191505b509250505060405180910390f35b6102e6600480360360208110156102ba57600080fd5b81019080803573ffffffffffffffffffffffffffffffffffffffff169060200190929190505050610af1565b6040518084815260200180602001838152602001828103825284818151815260200191508051906020019080838360005b83811015610332578082015181840152602081019050610317565b50505050905090810190601f16801561035f5780820380516001836020036101000a031916815260200191505b5094505050505060405180910390f35b610377610bb3565b6040518082815260200191505060405180910390f35b6103b9600480360360208110156103a357600080fd5b8101908080359060200190929190505050610bb9565b6040518084815260200180602001838152602001828103825284818151815260200191508051906020019080838360005b838110156104055780820151818401526020810190506103ea565b50505050905090810190601f1680156104325780820380516001836020036101000a031916815260200191505b5094505050505060405180910390f35b61046e6004803603602081101561045857600080fd5b8101908080359060200190929190505050610c7b565b604051808273ffffffffffffffffffffffffffffffffffffffff1673ffffffffffffffffffffffffffffffffffffffff16815260200191505060405180910390f35b6104e6600480360360408110156104c657600080fd5b810190808035906020019092919080359060200190929190505050610cb7565b005b61052a600480360360208110156104fe57600080fd5b81019080803573ffffffffffffffffffffffffffffffffffffffff169060200190929190505050610e06565b604051808215151515815260200191505060405180910390f35b60008060048054905014156105ac576000600260008473ffffffffffffffffffffffffffffffffffffffff1673ffffffffffffffffffffffffffffffffffffffff16815260200190815260200160002060006101000a81548160ff0219169083151502179055505b600080905060008090505b600480549050811080156106155750600260008573ffffffffffffffffffffffffffffffffffffffff1673ffffffffffffffffffffffffffffffffffffffff16815260200190815260200160002060009054906101000a900460ff16155b801561062657506000600480549050115b15610700578373ffffffffffffffffffffffffffffffffffffffff166004828154811061064f57fe5b9060005260206000200160009054906101000a900473ffffffffffffffffffffffffffffffffffffffff1673ffffffffffffffffffffffffffffffffffffffff1614156106f357600191506001600260008673ffffffffffffffffffffffffffffffffffffffff1673ffffffffffffffffffffffffffffffffffffffff16815260200190815260200160002060006101000a81548160ff0219169083151502179055505b80806001019150506105b7565b50600260008473ffffffffffffffffffffffffffffffffffffffff1673ffffffffffffffffffffffffffffffffffffffff16815260200190815260200160002060009054906101000a900460ff16915050919050565b6003818154811061076357fe5b9060005260206000209060030201600091509050806000015490806001018054600181600116156101000203166002900480601f0160208091040260200160405190810160405280929190818152602001828054600181600116156101000203166002900480156108155780601f106107ea57610100808354040283529160200191610815565b820191906000526020600020905b8154815290600101906020018083116107f857829003601f168201915b5050505050908060020154905083565b61082e81610544565b6109f25760076000815480929190600101919050555060405180606001604052806007548152602001610862600754610e26565b8152602001600654815250600160008373ffffffffffffffffffffffffffffffffffffffff1673ffffffffffffffffffffffffffffffffffffffff1681526020019081526020016000206000820151816000015560208201518160010190805190602001906108d2929190610f53565b50604082015181600201559050506003600160008373ffffffffffffffffffffffffffffffffffffffff1673ffffffffffffffffffffffffffffffffffffffff16815260200190815260200160002090806001815401808255809150509060018203906000526020600020906003020160009091929091909150600082015481600001556001820181600101908054600181600116156101000203166002900461097d929190610fd3565b506002820154816002015550505060048190806001815401808255809150509060018203906000526020600020016000909192909190916101000a81548173ffffffffffffffffffffffffffffffffffffffff021916908373ffffffffffffffffffffffffffffffffffffffff160217905550505b6001600260008373ffffffffffffffffffffffffffffffffffffffff1673ffffffffffffffffffffffffffffffffffffffff16815260200190815260200160002060006101000a81548160ff02191690831515021790555050565b60065481565b60058054600181600116156101000203166002900480601f016020809104026020016040519081016040528092919081815260200182805460018160011615610100020316600290048015610ae95780601f10610abe57610100808354040283529160200191610ae9565b820191906000526020600020905b815481529060010190602001808311610acc57829003601f168201915b505050505081565b6001602052806000526040600020600091509050806000015490806001018054600181600116156101000203166002900480601f016020809104026020016040519081016040528092919081815260200182805460018160011615610100020316600290048015610ba35780601f10610b7857610100808354040283529160200191610ba3565b820191906000526020600020905b815481529060010190602001808311610b8657829003601f168201915b5050505050908060020154905083565b60075481565b6000602052806000526040600020600091509050806000015490806001018054600181600116156101000203166002900480601f016020809104026020016040519081016040528092919081815260200182805460018160011615610100020316600290048015610c6b5780601f10610c4057610100808354040283529160200191610c6b565b820191906000526020600020905b815481529060010190602001808311610c4e57829003601f168201915b5050505050908060020154905083565b60048181548110610c8857fe5b906000526020600020016000915054906101000a900473ffffffffffffffffffffffffffffffffffffffff1681565b600080905060008090506000600190505b6007548111158015610ce15750821580610ce0575081155b5b15610dff578481148015610cf3575082155b15610d2c57600192508360036001830381548110610d0d57fe5b9060005260206000209060030201600201600082825401925050819055505b3373ffffffffffffffffffffffffffffffffffffffff1660046001830381548110610d5357fe5b9060005260206000200160009054906101000a900473ffffffffffffffffffffffffffffffffffffffff1673ffffffffffffffffffffffffffffffffffffffff16148015610d9f575081155b15610df257600191508360036001830381548110610db957fe5b9060005260206000209060030201600201540360036001830381548110610ddc57fe5b9060005260206000209060030201600201819055505b8080600101915050610cc8565b5050505050565b60026020528060005260406000206000915054906101000a900460ff1681565b60606000821415610e6e576040518060400160405280600181526020017f30000000000000000000000000000000000000000000000000000000000000008152509050610f4e565b600082905060005b60008214610e98578080600101915050600a8281610e9057fe5b049150610e76565b6060816040519080825280601f01601f191660200182016040528015610ecd5781602001600182028038833980820191505090505b50905060006001830390505b60008614610f4657600a8681610eeb57fe5b0660300160f81b82828060019003935081518110610f0557fe5b60200101907effffffffffffffffffffffffffffffffffffffffffffffffffffffffffffff1916908160001a905350600a8681610f3e57fe5b049550610ed9565b819450505050505b919050565b828054600181600116156101000203166002900490600052602060002090601f016020900481019282601f10610f9457805160ff1916838001178555610fc2565b82800160010185558215610fc2579182015b82811115610fc1578251825591602001919060010190610fa6565b5b509050610fcf919061105a565b5090565b828054600181600116156101000203166002900490600052602060002090601f016020900481019282601f1061100c5780548555611049565b8280016001018555821561104957600052602060002091601f016020900482015b8281111561104857825482559160010191906001019061102d565b5b509050611056919061105a565b5090565b61107c91905b80821115611078576000816000905550600101611060565b5090565b9056fea165627a7a723058209b52a22a578cc12ec32f76cefb09c2a90506131adffe7b994b0b8ab21c968fd40029",
  "source": "pragma solidity ^0.5.8;\n\ncontract Nequi {\n\n    struct User {\n        uint id;\n        string name;\n        uint dinero;\n\t\n        \n    }\n\n\n\n\n    // Read/write Users. Define Owner.\n    mapping(uint => User) public reciber;\n    mapping(address=>User) public owner;\n    mapping(address=>bool) public isRegistered;\n\n    \tUser[] public users;\n        address[] public registered_users;\n    \n    // Read/write candidate\n    string public user;\n\n    // Establece la cantidad de dinero inicial de cada usuario\n    uint public money=1000;\n    \n    // Store users Count\n    uint public usersCount;\n\n     \n\n    //Convert uint to string\n\n    function uint2str(uint _i) internal pure returns (string memory _uintAsString) {\n    if (_i == 0) {\n        return \"0\";\n    }\n    uint j = _i;\n    uint len;\n    while (j != 0) {\n        len++;\n        j /= 10;\n    }\n    bytes memory bstr = new bytes(len);\n    uint k = len - 1;\n    while (_i != 0) {\n        bstr[k--] = byte(uint8(48 + _i % 10));\n        _i /= 10;\n    }\n    return string(bstr);\n}\n\n\n//Confirms if an account is loogged into the network\n\nfunction isInNetwork (address _address) public returns(bool){\n\tif(registered_users.length==0){\n\t\tisRegistered[_address]=false;\n\t}\n\tbool a = false;\t\n\tfor(uint i=0; i<registered_users.length && !isRegistered[_address]&&registered_users.length>0; i++){\t\n\t\tif (registered_users[i]==_address){\n\t\t\ta=true;\n\t\t\tisRegistered[_address]=true; \n\t\t}\n\t}\n\t//if(!isRegistered[_address]){\n\t//isRegistered[_address]=false;\n\t//}\nreturn isRegistered[_address];\n}\n   \n    //Add a user to the network\n    function addUser (address _address) public {\n        \n        if (!isInNetwork (_address)){\n\tusersCount ++;\n\towner[_address]=User(usersCount, uint2str(usersCount), money);\n\tusers.push(owner[_address]);\n\tregistered_users.push(_address);\n\t}\n\tisRegistered[_address]=true;\n\t\n    }\n\t\n\n    // Constructor\n    //constructor () public {\n\t\n      //  }\n\n        \n    // Send money from one user to another.\n    \n    \n    function sendMoney(uint _id, uint _money) public {\n\n        //Requires that user is sending less than the total money that posses\n        //require(_money<=100);\n\n        //Requiere que le esté enviando a un usuario válido y diferente a sí mismo\n        //require(_id > 0 && _id <= usersCount);\n\n        // Sube el dinero en la cuenta id especificado.\n\n\n\n        bool a=false;\n\tbool b=false;\n        for(uint i=1;i<=usersCount && (!a || !b);i++){\n\t//Sube el dinero del usuario identificado en los parámetros\n\n\t\n        \tif(i==_id && !a){\n\t\t\ta=true;\n\t\t\tusers[i-1].dinero+=_money;}\n\n//Baja el dinero del que envía. \n\t\tif(registered_users[i-1]==msg.sender && !b){\n\t\t\tb=true;\n\t\t\tusers[i-1].dinero=users[i-1].dinero-_money;}\n        }\n\n       \n    }\n        \n     \n}\n\n",
  "sourcePath": "/home/fernando/Dropbox/Dapp_BC_1/BLOCKCHAIN_PROJECTS/Nequi2/contracts/Nequi.sol",
  "compiler": {
    "name": "solc",
    "version": "0.5.8+commit.23d335f2.Emscripten.clang"
  },
  "schemaVersion": "3.0.12",
  "updatedAt": "2019-09-09T14:08:08.935Z",
  "devdoc": {
    "methods": {}
  },
  "userdoc": {
    "methods": {}
  }
}