{
  "contractName": "Nequi",
  "abi": [
    {
      "constant": true,
      "inputs": [
        {
          "name": "",
          "type": "uint256"
        }
      ],
      "name": "users",
      "outputs": [
        {
          "name": "id",
          "type": "uint256"
        },
        {
          "name": "name",
          "type": "string"
        },
        {
          "name": "dinero",
          "type": "uint256"
        }
      ],
      "payable": false,
      "stateMutability": "view",
      "type": "function"
    },
    {
      "constant": true,
      "inputs": [],
      "name": "money",
      "outputs": [
        {
          "name": "",
          "type": "uint256"
        }
      ],
      "payable": false,
      "stateMutability": "view",
      "type": "function"
    },
    {
      "constant": true,
      "inputs": [],
      "name": "user",
      "outputs": [
        {
          "name": "",
          "type": "string"
        }
      ],
      "payable": false,
      "stateMutability": "view",
      "type": "function"
    },
    {
      "constant": true,
      "inputs": [],
      "name": "usersCount",
      "outputs": [
        {
          "name": "",
          "type": "uint256"
        }
      ],
      "payable": false,
      "stateMutability": "view",
      "type": "function"
    },
    {
      "constant": true,
      "inputs": [
        {
          "name": "",
          "type": "address"
        }
      ],
      "name": "userlist",
      "outputs": [
        {
          "name": "id",
          "type": "uint256"
        },
        {
          "name": "name",
          "type": "string"
        },
        {
          "name": "dinero",
          "type": "uint256"
        }
      ],
      "payable": false,
      "stateMutability": "view",
      "type": "function"
    },
    {
      "inputs": [],
      "payable": false,
      "stateMutability": "nonpayable",
      "type": "constructor"
    },
    {
      "constant": false,
      "inputs": [
        {
          "name": "_id",
          "type": "uint256"
        },
        {
          "name": "_money",
          "type": "uint256"
        }
      ],
      "name": "sendMoney",
      "outputs": [],
      "payable": false,
      "stateMutability": "nonpayable",
      "type": "function"
    }
  ],
  "bytecode": "0x60806040526103e860035534801561001657600080fd5b5061005b6040518060400160405280600681526020017f55736572203100000000000000000000000000000000000000000000000000008152506102c460201b60201c565b61009f6040518060400160405280600681526020017f55736572203200000000000000000000000000000000000000000000000000008152506102c460201b60201c565b6100e36040518060400160405280600681526020017f55736572203300000000000000000000000000000000000000000000000000008152506102c460201b60201c565b6101276040518060400160405280600681526020017f55736572203400000000000000000000000000000000000000000000000000008152506102c460201b60201c565b61016b6040518060400160405280600681526020017f55736572203500000000000000000000000000000000000000000000000000008152506102c460201b60201c565b6101af6040518060400160405280600681526020017f55736572203600000000000000000000000000000000000000000000000000008152506102c460201b60201c565b6101f36040518060400160405280600681526020017f55736572203700000000000000000000000000000000000000000000000000008152506102c460201b60201c565b6102376040518060400160405280600681526020017f55736572203800000000000000000000000000000000000000000000000000008152506102c460201b60201c565b61027b6040518060400160405280600681526020017f55736572203900000000000000000000000000000000000000000000000000008152506102c460201b60201c565b6102bf6040518060400160405280600781526020017f55736572203130000000000000000000000000000000000000000000000000008152506102c460201b60201c565b6103e5565b60046000815480929190600101919050555060405180606001604052806004548152602001828152602001600354815250600080600454815260200190815260200160002060008201518160000155602082015181600101908051906020019061032f929190610340565b506040820151816002015590505050565b828054600181600116156101000203166002900490600052602060002090601f016020900481019282601f1061038157805160ff19168380011785556103af565b828001600101855582156103af579182015b828111156103ae578251825591602001919060010190610393565b5b5090506103bc91906103c0565b5090565b6103e291905b808211156103de5760008160009055506001016103c6565b5090565b90565b61056d806103f46000396000f3fe608060405234801561001057600080fd5b50600436106100625760003560e01c8063365b98b2146100675780634ddd108a1461011c5780634f8632ba1461013a5780636ba13a82146101bd578063bd478243146101db578063c444e19e14610213575b600080fd5b6100936004803603602081101561007d57600080fd5b81019080803590602001909291905050506102de565b6040518084815260200180602001838152602001828103825284818151815260200191508051906020019080838360005b838110156100df5780820151818401526020810190506100c4565b50505050905090810190601f16801561010c5780820380516001836020036101000a031916815260200191505b5094505050505060405180910390f35b6101246103a0565b6040518082815260200191505060405180910390f35b6101426103a6565b6040518080602001828103825283818151815260200191508051906020019080838360005b83811015610182578082015181840152602081019050610167565b50505050905090810190601f1680156101af5780820380516001836020036101000a031916815260200191505b509250505060405180910390f35b6101c5610444565b6040518082815260200191505060405180910390f35b610211600480360360408110156101f157600080fd5b81019080803590602001909291908035906020019092919050505061044a565b005b6102556004803603602081101561022957600080fd5b81019080803573ffffffffffffffffffffffffffffffffffffffff16906020019092919050505061047f565b6040518084815260200180602001838152602001828103825284818151815260200191508051906020019080838360005b838110156102a1578082015181840152602081019050610286565b50505050905090810190601f1680156102ce5780820380516001836020036101000a031916815260200191505b5094505050505060405180910390f35b6000602052806000526040600020600091509050806000015490806001018054600181600116156101000203166002900480601f0160208091040260200160405190810160405280929190818152602001828054600181600116156101000203166002900480156103905780601f1061036557610100808354040283529160200191610390565b820191906000526020600020905b81548152906001019060200180831161037357829003601f168201915b5050505050908060020154905083565b60035481565b60028054600181600116156101000203166002900480601f01602080910402602001604051908101604052809291908181526020018280546001816001161561010002031660029004801561043c5780601f106104115761010080835404028352916020019161043c565b820191906000526020600020905b81548152906001019060200180831161041f57829003601f168201915b505050505081565b60045481565b806000808481526020019081526020016000206002015401600080848152602001908152602001600020600201819055505050565b6001602052806000526040600020600091509050806000015490806001018054600181600116156101000203166002900480601f0160208091040260200160405190810160405280929190818152602001828054600181600116156101000203166002900480156105315780601f1061050657610100808354040283529160200191610531565b820191906000526020600020905b81548152906001019060200180831161051457829003601f168201915b505050505090806002015490508356fea165627a7a72305820bd58475c59a62f6e26a7b0201b8b51e3016a049df0014c46ad6c30e5c6c6b4560029",
  "source": "pragma solidity ^0.5.8;\n\ncontract Nequi {\n\n    struct User {\n        uint id;\n        string name;\n        uint dinero;\n        \n    }\n\n    // Read/write Users. Define Owner.\n    mapping(uint => User) public users;\n    mapping(address=>User) public userlist;\n    \n    // Read/write candidate\n    string public user;\n\n    // Establece la cantidad de dinero inicial de cada usuario\n    uint public money=1000;\n    \n    // Store users Count\n    uint public usersCount;\n\n    //var Web3 = require('web3');\n    //var web3 = new Web3(Web3.givenProvider || 'ws://some.local-or-remote.node:8546');\n    //string[] accounts=web3.eth.getAccounts();\n    \n    // Mapping from address to ID\n    //function find_user_id(address _address) public view returns(uint){      \n      //return userlist[_address].id;\n    //}\n    \n    //Add a user to the network\n    function addUser (string memory _name) private {\n        usersCount ++;\n        users[usersCount]=User(usersCount, _name, money);\n    }\n\n    // Constructor\n    constructor () public {\n        addUser(\"User 1\");\n        addUser(\"User 2\");\n        addUser(\"User 3\");\n        addUser(\"User 4\");\n        addUser(\"User 5\");\n        addUser(\"User 6\");\n        addUser(\"User 7\");\n        addUser(\"User 8\");\n        addUser(\"User 9\");\n        addUser(\"User 10\");\n    }\n\n        \n    // Send money from one user to another.\n    \n    \n    function sendMoney(uint _id, uint _money) public {\n\n        //Requires that user is sending less than the total money that posses\n        //require(_money<=100);\n\n        //Requiere que le esté enviando a un usuario válido y diferente a sí mismo\n        //require(_id > 0 && _id <= usersCount);\n\n        // Sube el dinero en la cuenta id especificado.\n        users[_id].dinero=users[_id].dinero+_money;\n\n    }\n        \n     \n}\n\n",
  "sourcePath": "/home/fernando/Dropbox/Dapp_BC_1/BLOCKCHAIN_PROJECTS/Nequi/contracts/Nequi.sol",
  "compiler": {
    "name": "solc",
    "version": "0.5.8+commit.23d335f2.Emscripten.clang"
  },
  "schemaVersion": "3.0.12",
  "updatedAt": "2019-09-02T20:34:37.233Z",
  "devdoc": {
    "methods": {}
  },
  "userdoc": {
    "methods": {}
  }
}